:10000000860B04000000000000000000000000005B
:1000100000000000000000000000000000000000E0
:1000200000000000000000000000000000000000D0
:1000300000000000000000000000000000000000C0
:1000400000000000000000000000000000000000B0
:1000500000000000000000000000000000000000A0
:100060000000000000000000000000000000000090
:100070000000000000000000000000000000000080
:100080000000000000000000000000000000000070
:100090000000000000000000000000000000000060
:1000A0000000000000000000000000000000000050
:1000B0000000000000000000000000000000000040
:1000C0000000000000000000000000000000000030
:1000D0000000000000000000000000000000000020
:1000E0000000000000000000000000000000000010
:1000F0000000000000000000000000000000000000
:1001000000000000000000000000000000000000EF
:1001100000000000000000000000000000000000DF
:1001200000000000000000000000000000000000CF
:1001300000000000000000000000000000000000BF
:1001400000000000000000000000000000000000AF
:10015000000000000000000000000000000000009F
:10016000000000000000000000000000000000008F
:10017000000000000000000000000000000000007F
:10018000000000000000000000000000000000006F
:10019000000000000000000000000000000000005F
:1001A000000000000000000000000000000000004F
:1001B000000000000000000000000000000000003F
:1001C000000000000000000000000000000000002F
:1001D000000000000000000000000000000000001F
:1001E000000000000000000000000000000000000F
:1001F00000000000000000000000000000000000FF
:10170C00CFB62000F0FF200020A0B7000000200082
:10171C0034A0B700400020004420B7000E00FA00AF
:10172C005A0F0200000000008A1F78008B1F7800FF
:10173C008C1F78000020EF002052880010408000A1
:10174C00E100500040A420001008E1000B0035001F
:10175C0020528000C200DD0060A420000101400086
:10176C000020EF000220EF000089BE0011002000D5
:10177C0040A4200010884000F0FF3700C822EF0082
:10178C00C622A800C602A8000A202C001B002000BC
:10179C00FFFD070008012000971220000E20ED002D
:1017AC00FEFF3A001020ED00FCFF3A0000000000A4
:1017BC00C7FF07000020EF00205288001040800077
:1017CC00E100500040A420001008E1002400350086
:1017DC0020528000C200DD0060A420000100400007
:1017EC00000798001A0020009DFE07008000EB0007
:1017FC0076FD070002002000030A24009BFB070073
:10180C0002002F00F3572400B8FA07000E019000D5
:10181C000089BE00205280004201DD00409420006F
:10182C008200400060A4200002004000B018780044
:10183C00A010780020528000C200DD00008420003F
:10184C00010140000020EF000220EF000089BE00E3
:10185C001100200040A4200010884000D7FF370062
:10186C000020EF00F041880010002000004A8800A2
:10187C00F1418000008020001008E10007003D00CD
:10188C00004A80004100DD00004A88001100200061
:10189C00E083200010884000F5FF3700004A8000EC
:1018AC00C180DE00114A880010002000305A8800E8
:1018BC00015B8800004A8000E200500060B4200008
:1018CC001008E10042003400315A800000B62000BC
:1018DC001008E1002A003D00305A80004201DD0072
:1018EC0040942000820140001300BE00E05A8800A2
:1018FC00F15A880000842000020140001200BE0052
:10190C00105B8800215B8800005B8000C200DD005A
:10191C004094200001004000B0197800A01178001C
:10192C00305A8000C200DD0000842000010140001C
:10193C00005B8000C200DD0000842000010040003C
:10194C003019780020117800005B8000C200DD00A7
:10195C004094200001014000E05A8000F15A8000C0
:10196C000089BE00005B8000C200DD000084200006
:10197C0001014000105B8000215B80000089BE00EB
:10198C00104A8000F0418800F141800000B6200030
:10199C001008E10007003C00F141800000B6200077
:1019AC0010881000F04180004180DE00F04188007A
:1019BC00F5FF3700F141800000B620001088400090
:1019CC001100200060B4200010884000B9FF3700DF
:1019DC0010002000505B88000000200001F82B0054
:1019EC00305B8800415B88000020EF000220EF0094
:1019FC00C05A8800D15A88000020EF00605A880035
:101A0C00615A8000008020001008E100D8003D00E1
:101A1C00505B80004100DD00505B88000020EF002F
:101A2C00005B8800015B8000009420001008E1003E
:101A3C00AE003D000000200001F82300405A880051
:101A4C00515A88000020EF000220EF00705A8800E5
:101A5C00815A88000020EF00F0418800505B800024
:101A6C00C180DE00E08320001008E1009B00340000
:101A7C00F141800000B6200090804000315A88006F
:101A8C00505B80004180DE0000804000B05A88002E
:101A9C00C200DD0040942000010140001200BE0095
:101AAC00425A8000535A8000F0FA07005007980001
:101ABC0061079800B05A8000C200DD004107980011
:101ACC000084200001014000220798001200BE0093
:101ADC00725A8000835A8000E4FA070000079800CD
:101AEC00110798005E009000EE009000829FBE00EF
:101AFC000E0190009E0190000FFD07004F01BE00EB
:101B0C00905A8800A15A88002E0190001200BE0045
:101B1C00425A8000535A8000D4FA070020079800DC
:101B2C0031079800419420004E0090000081400045
:101B3C00020798001200BE00725A8000835A80007F
:101B4C00CAFA07002E019000BE01900060FB07004E
:101B5C00A0408800B1408800305A8000C200DD00EF
:101B6C0040942000010040001002BE00925A8000F8
:101B7C00A35A80000400BE00EFFC07000E01900089
:101B8C000089BE00B05A8000C200DD000084200035
:101B9C000100400000079800305A8000C200DD00B0
:101BAC0000842000010040001002BE00A240800012
:101BBC00B34080000400BE00DFFC07000E01900063
:101BCC000089BE00305A8000C200DD004094200025
:101BDC0001004000000798001001BE00905A8000E0
:101BEC00A15A80003AFB07000E0190000089BE004C
:101BFC00305A8000C200DD0000842000010040004B
:101C0C00000798001001BE00A0408000B140800089
:101C1C002FFB07000E0190000089BE00405A800087
:101C2C00515A8000325B8000435B80008FFA0700C2
:101C3C002007980031079800705A8000815A800064
:101C4C00C25A8000D35A800088FA07000007980017
:101C5C00110798002E009000BE009000829FBE00DD
:101C6C000E0190009E019000B3FC07004F01BE00D6
:101C7C008040880091408800405A8000515A800072
:101C8C00C25A8000D35A800078FA070000079800E7
:101C9C0011079800705A8000815A8000325B8000D6
:101CAC00435B800071FA07000E0190009E019000CA
:101CBC0007FB0700705A8800815A8800804080001A
:101CCC0091408000405A8800515A88001100200031
:101CDC00E08320001088400060FF3700515B8000DB
:101CEC0000B62000108840004EFF37000000200096
:101CFC0001F82300325B8000435B80008EFC070000
:101D0C00020020000300240078F907000005BE0043
:101D1C00E1FC0700C05A8800D15A8800030020005B
:101D2C000400280082B520000319680004916800A3
:101D3C000200200003F82300305B8000415B800030
:101D4C00E3FA0700020020000300240067F90700F3
:101D5C000005BE00D0FC0700305B8800415B8800AA
:101D6C0011002000C0B420001088400024FF370070
:101D7C000020EF002052880010408000E10050004D
:101D8C0040A420001008E1000F0035002052800014
:101D9C00C200DD0060A42000010040008C81200006
:101DAC001005BE0033FD07008A81200067FC070088
:101DBC00CA022000BAFA07001100200040A420003B
:101DCC0010884000ECFF3700DA002000B4FA07005E
:101DDC00AA002000B2FA07000020EF002052880071
:101DEC0010408000E100500040A420001008E100E9
:101DFC001C00350020528000C200DD004094200001
:101E0C00010040007C8220001005BE0019FD070077
:101E1C007A8220004DFC0700BA022000A0FA0700CD
:101E2C0020528000C200DD00008420000100400030
:101E3C007C8220001005BE000EFD07007A82200077
:101E4C0042FC07009A06200095FA0700CA022000FF
:101E5C0093FA07001100200040A4200010884000D5
:101E6C00DFFF3700DA0020008DFA0700AA002000FF
:101E7C008BFA07004FFE37004F067800CF0578002D
:0C1E8C004F0578000080FA00FFFF3700CF
:100F9C000800FA0060452000E0418800F0FF2F00B7
:100FAC00D0418800F0FF2F00C0418800F0FF2F00D7
:100FBC00B04188000C22EF00000028000EA2B70000
:100FCC0028FF0700823E2000030020001CFF0700C2
:100FDC000002BE0026FF07004100DE006400400056
:100FEC00800078000A01BE008100E9000300350092
:100FFC000201D0008381D200FBFF3700020798006A
:10100C0013079800849FBE000400BE000002EB0092
:10101C0019FF07004F02BE00200798003107980007
:10102C000400BE000E0190009E0190000002EB0037
:10103C003DFF070080017800010278006000470046
:10104C005001D100C080D300640047003008E1009B
:10105C002090E1000400310061804100E0004A0072
:10106C000001BE0002003700030178008401780003
:10107C0061005100E0805900A01088000E22A900E8
:10108C000DE2A8000F42A800E5FE0700E4FE0700F1
:08109C000080FA0000000600CC
:0C0C700000CF2C00110020000000060046
:080C7C0040002000000006000A
:100C2C0008012000971220000E20ED00FEFF3A0074
:100C3C001020ED00FCFF3A00000000000000060050
:000C4C00A8
:100C4C000000FA00020AB800500088000200B80048
:100C5C0081004200032AB800810042000080FA00A3
:040C6C00000006007E
:100C84000000FA00020007009606040000000000BD
:100C94000800E20002003A0010000700000006000D
:100CA400811F78000200E20002003D006000100095
:100CB400E08018000600E20002003D00600111001F
:100CC400E0811900050007004F00E00002003B002E
:100CD40060001000E0801800000006000200070019
:100CE4000480BE00000006006022B8000602200056
:100CF4000000D0008180D2000482D2008582D2001C
:100D04000000A8000202520083825A0003003B0044
:100D14000202420083824A000000A1000603E900A7
:100D2400F3FF3A00000006000080FA00000006000D
:000D3400BF
:100D34000000FA0002000700E806040000000000BA
:100D44000800E20002003A0010000700000006005C
:100D5400839F68000200E20002003D006000100072
:100D6400E08018000600E20002003D00600111006E
:100D7400E0811900050007004F00E00002003B007D
:100D840060001000E0801800000006006022B80037
:100D9400060220000000D0008180D2000482D2002C
:100DA4008582D2000000A8000202520083825A0009
:100DB40003003B000202420083824A000000A100BB
:100DC4000603E900F3FF3A00000006000080FA0081
:040DD4000000060015
:1016DC000000FA00805F200070408800000E20009F
:1016EC00A0A2B700A222EF00F0F32100A4A2B70041
:1016FC00AA22EF00A1E2A8000080FA000000060078
:00170C00DD
:10126C000000FA001A0107005EFE07000080FA0079
:04127C000000060068
:100BF0000000FA00100020000A00DD008080EA00FA
:100C0000802A2000108860003A158800A022A800E1
:100C1000A002AF0001003700FDFF3700A002A900CD
:0C0C20008082BF000080FA000000060087
:1010A4000C00FA008C1F78008A9FBE000420EF0019
:1010B4000620EF000A00BE0089FC07000000E000E3
:1010C4000060EF0001003C000060EC004F05BE0032
:1010D4000040E200030032000020EF000220EF0095
:1010E4005E0037000A0798001B0798008A9FBE001D
:1010F4000200200003F823000A00BE0078FC070069
:101104000000E0000060EF0001003D000060EC0022
:101114004F05BE000040E200090032008A9FBE0075
:101124000E0190009E0190000000200001F82300B1
:1011340070FC07004F05BE000007980011079800D7
:101144006A0047008A9FBE00000678000E059000E2
:101154009E05900002FD07005E0190004191DE00B3
:10116400020678000005BE0013FD07004F05BE000F
:1011740000079800110798008A9FBE000200200013
:1011840003F823000A00BE0055FC07000000E0003D
:101194000060EF0001003D000060EC004F05BE0060
:1011A4000040E200090032008A9FBE000E01900058
:1011B4009E0190000000200001F823004DFC070070
:1011C4004F05BE0000079800110798004001200059
:1011D400400798008A9FBE000E0190009E01900077
:1011E4000A00BE0043FC07000E0190009E0190001F
:1011F400B9FD070002002000030024003DFC0700A5
:1012040020079800310798000E0190009E0190007D
:1012140033FC07000000E0000060EF0001003A002A
:101224000060EC004F05BE000040E2000100320007
:10123400080037002E009000BE00900000079800C0
:10124400110798004E0090000020ED004007980020
:10125400E0FF3A000E0090009E0090004F067800D8
:081264000080FA000000060002
:100564000400FA000A0798001B0798009E009000F8
:1005740000F8270080806000C708DE00E007200044
:1005840000805000000E780001F023006200470054
:100594009080680000F827008080600062004700B7
:1005A40090806800110798000E0090009E00900053
:0805B4000080FA0000000600BF
:1005BC000400FA000A0798001B0798009E009000A0
:1005CC0000F82700008060004700DE0000004600B5
:1005DC00000678006000E10003003D000020EF0001
:1005EC000220EF001F003700F00F20000060E10038
:1005FC00100034000420EF000620EF000A00BE00BB
:10060C0035FF07000000E0000060EF0001003D0036
:10061C000060EC000040E20003003200F0FF2F000D
:10062C00F1F72F000F003700F0FF2F00F1F7270034
:10063C000C00370070C0B3000000FB008060DD00D0
:10064C00620047009080680000F8270080806000FE
:10065C006200470090806800110798000E0090001F
:0C066C009E0090000080FA0000000600D4
:1002E4000000FA0014002000C4FF07000080FA0098
:0402F4000000060000
:100200000000FA00020007006E0104000000000078
:10021000841F7800140007004F007800110033009D
:10022000F0FF2F00838F6C0006003B000405650083
:100230000A00A7000800370009F0A60010002000FF
:1002400008003700820F5400838F5C0003003900E0
:100250001000200001003E000000200009F0A7006F
:100260000000EA00000006000084BE00060007004F
:100270000083BE000485BE000280BE0002000700AD
:10028000844F750000000600C70ADE00F107B200C7
:10029000F50FB20008003200E1CF42000200320048
:1002A00002E0A80024000500810F70000100320068
:1002B0000408050044000500810F700002003A00A8
:1002C000140005008502E9000000400081C04800DC
:1002D000FCFF3B0002E0A800240005000080FA00BB
:0402E0000000060014
:1002F8000000FA0002000700AE020400000000003F
:10030800889FBE008A9FBE008C1F78003E000700B1
:100318004500330003866C006450E1002E00320073
:100328006420E100330032006150E1002F00320008
:100338006120E1003100320085855500EB07B000EF
:1003480009002000080420000500370008044400C4
:1003580089844C000A0031000603430087834B0060
:100368000001530081815B00F8FF33000283BE0067
:100378001000A8000804440089844C00F6FF3900E6
:10038800C639DD008301730001003200130020002C
:100398008904D1000884D3000998A300050032001D
:1003A8000800A7000600A8008904D1000884D3002B
:1003B8008B05E8008904D1000884D3000001EB0014
:1003C8000281D2002800070001F0A1000CF0A7006C
:1003D80003E0A8001D0037006420E1001F00320080
:1003E8000881BE000280BE00F7FF37006120E100EF
:1003F8001A0032006000B800F3FF37000000200048
:1004080001F82700F0FF37000084BE003C00070019
:100418000083BE000485BE000280BE0038000700CD
:10042800844F7500000006000280BE006450E100A1
:10043800050036006420E100020036000968A300C8
:1004480001003A000880BE0002C0A8004F067800EC
:100458004F05BE004F04BE0000000600F0FF2F004D
:10046800F1FF2700F9FF3700810020006180550067
:100478000B003D000B00200061FE2F000100E10091
:100488001D00340082817100610164008904D1007B
:100498000884D3000000E800FAFF3A007100200049
:1004A800610064000300700002006000090032006F
:1004B80061044400E0844C000988A500050032006E
:1004C8008B05E8006808E10002003A008904D100C1
:1004D8000884D300F20F20000258E10005003D0017
:1004E800C75DDD00F907B200898075000800880043
:1004F800000006000BF827001B008800000005001C
:10050800C70ADE00F107B200F50FB200080032009A
:10051800E1CF42000200320002E0A80024000500FA
:10052800810F700001003200040805004400050036
:10053800810F700002003A00140005008502E900EE
:100548000000400081C04800FCFF3B0002E0A8001A
:0C055800240005000080FA0000000600EE
:1008DC000000FA0002000700D6050400000000002A
:1008EC00889FBE008A9FBE008C1F780059000700AD
:1008FC00600033006450E1004F0032006420E100DE
:10090C005200320003826C0007003B000905D00046
:10091C000306D000820F54000C065D000200390063
:10092C000200320039008800C3008800858255001F
:10093C0004003D000003FD008103FD008502EA0078
:10094C008B854200840F720002003B006000100097
:10095C00E08018006011B8000005EB007A28E10077
:10096C000A00390006008800C75DDD00F707B200F9
:10097C00878075002D003700828171002A00880065
:10098C00610560008180D1000080D3008502E90000
:10099C00F9FF3B00060440008784480002003B003E
:1009AC0060041400E0841C000988A30007003200D6
:1009BC008A81710082817100610164008904D10017
:1009CC000884D3008B05E800170037000978A300D2
:1009DC0013003A001600E200130034008B05E90006
:1009EC000804440089844C000A4474000978A3006C
:1009FC000D003A001600E200070034008B05E900F8
:100A0C000804440089844C0001003A000B002000CB
:100A1C000978A300F7FF32000001EB000200370059
:100A2C00828171002A008800220007000CF0A700C8
:100A3C0003E0A800180037006420E10002003A002F
:100A4C00838F6C00180033000881BE000280BE004A
:100A5C00110037000084BE003C0007000083BE007C
:100A6C000485BE000280BE0038000700844F75006C
:100A7C00000006000280BE006450E1000500360054
:100A8C006420E100020036000968A30001003A006E
:100A9C000880BE0002C0A8004F0678004F05BE00BB
:100AAC004F04BE0000000600F0FF2F00F1FF2700EE
:100ABC00F9FF370081002000618055000B003D00DC
:100ACC000B00200061FE2F000100E1001D0034002E
:100ADC0082817100610164008904D1000884D30013
:100AEC000000E800FAFF3A00710020006100640089
:100AFC000300700002006000090032006104440031
:100B0C00E0844C000988A500050032008B05E80044
:100B1C006808E10002003A008904D1000884D3007F
:100B2C00F20F20000258E10005003D00C75DDD001A
:100B3C00F907B200898075000800880000000600E3
:100B4C000BF827001B00880000000500C70ADE0018
:100B5C00F107B200F50FB20008003200E1CF4200FD
:100B6C000200320002E0A80024000500810F700092
:100B7C00010032000408050044000500810F7000DC
:100B8C0002003A00140005008502E9000000400054
:100B9C0081C04800FCFF3B0002E0A80024000500D7
:080BAC000080FA0000000600C1
:101280000600FA008A1F78008B1F780000002000FB
:101290004047980000002000504798000A07980037
:1012A0001B0798000E0190009E019000F0FF2F0098
:1012B000F1FF2F000010E1000198E10005003A0065
:1012C000AB8020000C0578003AFE070030C0B30068
:1012D000FE00370016C0B300600047006300400006
:1012E0001040780000E0AE000D00370060004700BD
:1012F000630140009280FB0000082000008068002D
:1013000000497800E1404300D0C2B300004E7800AD
:1013100061004600000678000142780001003700B5
:10132000064278000E0090009E0090006000E100F0
:101330006088E10005003A008B8020000C057800F1
:101340001CFE07000020EF00E00037000E019000B7
:101350009E0190000000200001F827000010E1002D
:101360000198E10005003A004B8020000C05780050
:1013700010FE070004407800D40037008C1F78006E
:101380008A9FBE000200200003F823000E00900098
:101390009E009000D3FB07000000E0000060EF001B
:1013A00001003D000060EC004F05BE004F067800D4
:1013B0000040E2000F0032008C1F78008A9FBE00C0
:1013C0000E0090009E0090000200200003122400F6
:1013D000A9FC07004F05BE004F06780000079800E3
:1013E00011079800DE4090006500470061C850007A
:1013F000E2FF37008C1F78008A9FBE0002002000A9
:10140000031224000E0090009E0090002EFD0700A5
:101410000000E0000060EF00010035000060EC001B
:101420004F05BE004F0678000040E2000F0032007A
:101430008C1F78008A9FBE000E0090009E009000D6
:10144000D2CC2C00C3DC23008BFC07004F05BE0070
:101450004F0678000007980011079800DE409000C2
:101460006500470061C84000E2FF370060014700A7
:101470003200D000A280D200000798001107980027
:10148000600047006300400090407800F0C7B30060
:1014900000C1500060004700E300400010C0B300EE
:1014A000804878008281FB00600147001200BE0086
:1014B0008301E900030035000000D0008180D200E4
:1014C000FBFF3700000798001107980060004700F5
:1014D00063004000010320001080FB0000804000FA
:1014E000004E780061004600000678005E409000E3
:1014F0006104E100040035005E4090006604E100F4
:1015000001003C0006003700E0C2B300004E780046
:10151000610046000006780010C0B3004047980004
:1015200065C0B300602CE1002C0032006000470071
:10153000E30040000020EF00804878006000470092
:10154000B001D0002082D2008301D0000482D200FA
:101550006001470032804100A2004A000007980065
:1015600011079800600147003200D000A280D2002D
:1015700000079800110798006000470063004000D2
:10158000010320001080FB0000804000004E780026
:1015900061004600000678004E4090006004E100C3
:1015A0000B003A005E4090000060ED00504798004C
:1015B0006004E10006003A00E0C2B300004E78008B
:1015C000610046000006780010C0B3004047980054
:1015D00061C0520080427800D2FF3700F0FF2F0038
:1015E000000046009040780000C3B300000CE1000A
:1015F00003003A006100560000067800F7FF37004C
:10160000F0FF2F000000460090407800E0C2B300D9
:10161000000CE10002003A0061005600000678006C
:101620005E4090006004E1002500320050C6B30027
:10163000004E780061004600000678005E40900091
:101640006004E10007003D00D0C2B300004E780006
:101650006100460000067800DE409000650047000B
:1016600060C81000DE4190005E4090006904E10017
:101670000A0036000380FB00A200200011000900D0
:101680000200D80080007800000320000100400024
:10169000004E780061004600000678000380FB00E1
:1016A000A2002000110009000200D8000003200061
:1016B00001004000004E78006100460000067800FE
:1016C0000020EF00004E78000020EF00CF057800EA
:0C16D0004F0578000080FA0000000600C2
:100BB4000000FA000A00780000017800E10140001A
:100BC4008B00780061804500800578001149780029
:100BD4001204E0000200320003007800F6FF370040
:0C0BE4000A0078000080FA000000060003
:1008C8000000FA00F4FF2F004BFE07000080FA003A
:0408D8000000060016
:100678000000FA0002000700520404000000000015
:10068800889FBE008A9FBE008C1F7800300007003C
:100698003700330003866C006450E1002400320008
:1006A8006420E100270032006150E100220032009E
:1006B8006120E100210032008B854200EB07B10088
:1006C8000134B800003AB8000804420089844A009E
:1006D800013AB8000030B8008880400009014A009B
:1006E80004003300000040008180480002014900F6
:1006F8008B05E900C909DD008301700001003200A3
:1007080013002000C814DE004814DD004709DE008D
:100718001200B200C808DE00088470002400070038
:1007280001F0A1000CF0A70003E0A80019003700B1
:100738006120E1001B0032000881BE000280BE007B
:10074800F7FF37006150E100FCFF3A001500370061
:100758000084BE003C0007000083BE000485BE0084
:100768000280BE0038000700844F750000000600B4
:100778000280BE006450E100050036006420E100FC
:10078800020036000968A30001003A000880BE0094
:1007980002C0A8004F0678004F05BE004F04BE00F7
:1007A80000000600F0FF2F00F1FF2700F9FF3700D7
:1007B80081002000618055000B003D000B002000E7
:1007C80061FE2F000100E1001D00340082817100EC
:1007D800610164008904D1000884D3000000E800A6
:1007E800FAFF3A0071002000610064000300700005
:1007F800020060000900320061044400E0844C00FB
:100808000988A500050032008B05E8006808E100AA
:1008180002003A008904D1000884D300F20F2000B6
:100828000258E10005003D00C75DDD00F907B20090
:100838008980750008008800000006000BF8270072
:100848001B00880000000500C70ADE00F107B2009F
:10085800F50FB20008003200E1CF4200020032007A
:1008680002E0A80024000500810F7000010032009A
:100878000408050044000500810F700002003A00DA
:10088800140005008502E9000000400081C048000E
:10089800FCFF3B0002E0A800240005000080FA00ED
:0408A8000000060046
:100F58000000FA000220EF001A4078006004E10067
:100F68000A0032008A1F78000085FB004DFE07004A
:100F78004F05780061C04000804078000080FB0089
:100F88000000450010407800F4FF37000080FA00A8
:040F9800000006004F
:1008AC000000FA000F02AF0001003700FDFF370017
:0C08BC008A1088000080FA00000006008E
:100DD8000000FA00020007009E070400000000005F
:100DE8000400E20006003A000005EB000200E20001
:100DF8000F003E000000E200270032000C00370020
:100E0800A10088000200E2000400350008003C0050
:100E18000000E200200032000500370060001000EA
:100E2800E080180002003B0001F02C001A00370097
:100E38000084BE006011B8006B0920000982CF0051
:100E4800020039000882CF000441B0006942520014
:100E58000E00320008003B008281710061016400CD
:100E68008904D1000884D3008B05E8000442E80017
:100E7800F9FF3A00050037000804440089844C0053
:100E88008B05E9000442E900FBFF3A000300070074
:100E98000AF0A70003E0A800000006008100200077
:100EA800618055000B003D000B00200061FE2F0003
:100EB8000100E1001D0034008281710061016400BD
:100EC8008904D1000884D3000000E800FAFF3A0042
:100ED80071002000610064000300700002006000DF
:100EE8000900320061044400E0844C000988A50030
:100EF800050032008B05E8006808E10002003A00AE
:100F08008904D1000884D300F20F20000258E100C0
:100F180005003D00C75DDD00F907B2008980750056
:100F280008008800000006000BF827001B00880056
:0C0F3800000005000080FA000000060028
:100F44000000FA0007E0AA0063FE07000080FA0030
:040F54000000060093
:101EB40001802000C0F4280006000900B018780052
:041EC4000000060014
:041E98000600000040
:041E9C004000000002
:081EA000494E0000460000005D
:041EA8003000000006
:081EAC004E6100004E00000031
:0200000401F009
:1C000000078700003F000000B38700000F3100000F3300000700000003C0000091
:00000001FF
